:100000000C9462000C948A000C948A000C948A0070
:100010000C948A000C948A000C948A000C948A0038
:100020000C948A000C948A000C948A000C948A0028
:100030000C948A000C948A000C948A000C948A0018
:100040000C94C7020C948A000C9495020C946F02D5
:100050000C948A000C948A000C948A000C948A00F8
:100060000C948A000C948A000000000024002700F1
:100070002A0000000000250028002B0000000000DE
:1000800023002600290004040404040404040202DA
:100090000202020203030303030301020408102007
:1000A0004080010204081020010204081020000012
:1000B0000008000201000003040700000000000027
:1000C0000000110311241FBECFEFD8E0DEBFCDBF6B
:1000D00011E0A0E0B1E0E6EFFBE002C005900D9278
:1000E000A231B107D9F721E0A2E1B1E001C01D9230
:1000F000A23CB207E1F710E0C2E6D0E004C02197CD
:10010000FE010E94F305C136D107C9F70E944F03D3
:100110000C94F9050C940000AF92BF92CF92DF923D
:10012000EF92FF920F931F93CF93DF936C017B01AC
:100130008B01040F151FEB015E01AE18BF08C0173D
:10014000D10759F06991D601ED91FC910190F081B0
:10015000E02DC6010995892B79F7C501DF91CF9173
:100160001F910F91FF90EF90DF90CF90BF90AF90D5
:100170000895FC01538D448D252F30E0842F90E0AD
:10018000821B930B541710F0CF9608950197089592
:10019000FC01918D828D981761F0A28DAE0FBF2F5B
:1001A000B11D5D968C91928D9F5F9F73928F90E0B1
:1001B00008958FEF9FEF0895FC01918D828D981720
:1001C00031F0828DE80FF11D858D90E008958FEF5D
:1001D0009FEF0895FC01918D228D892F90E0805C26
:1001E0009F4F821B91098F73992708958BE191E0AE
:1001F0000E94EA0021E0892B09F420E0822F089573
:1002000080E090E0892B29F00E94F60081110C9487
:1002100000000895FC01A48DA80FB92FB11DA35AA9
:10022000BF4F2C91848D90E001968F739927848F16
:10023000A689B7892C93A089B1898C918370806439
:100240008C93938D848D981306C00288F389E02DDA
:1002500080818F7D80830895EF92FF920F931F938B
:10026000CF93DF93EC0181E0888F9B8D8C8D981369
:100270001AC0E889F989808185FF15C09FB7F89475
:10028000EE89FF896083E889F989808183708064C1
:1002900080839FBF81E090E0DF91CF911F910F910C
:1002A000FF90EF900895F62E0B8D10E00F5F1F4F1B
:1002B0000F731127E02E8C8D8E110CC00FB607FC2A
:1002C000FACFE889F989808185FFF5CFCE010E94B8
:1002D0000A01F1CFEB8DEC0FFD2FF11DE35AFF4F1B
:1002E000F0829FB7F8940B8FEA89FB898081806246
:1002F000CFCFCF93DF93EC01888D8823B9F0AA8903
:10030000BB89E889F9898C9185FD03C0808186FDD0
:100310000DC00FB607FCF7CF8C9185FFF2CF80811F
:1003200085FFEDCFCE010E940A01E9CFDF91CF9189
:100330000895833081F028F4813099F08230A9F05B
:1003400008958730A9F08830C9F08430B1F48091E5
:1003500080008F7D03C0809180008F778093800024
:10036000089584B58F7784BD089584B58F7DFBCFC4
:100370008091B0008F778093B00008958091B00095
:100380008F7DF9CFCF93DF93282F30E0F901E2552D
:10039000FF4F8491F901E656FF4FD491F901EA57D6
:1003A000FF4FC491CC23A1F081110E949901EC2F41
:1003B000F0E0EE0FFF1FE458FF4FA591B491EC91D0
:1003C000ED2381E090E009F480E0DF91CF91089582
:1003D00080E090E0FACF1F93CF93DF93282F30E097
:1003E000F901E255FF4F8491F901E656FF4FD49190
:1003F000F901EA57FF4FC491CC23A9F0162F8111C0
:100400000E949901EC2FF0E0EE0FFF1FEE58FF4F16
:10041000A591B4918FB7F894EC91111108C0D095C3
:10042000DE23DC938FBFDF91CF911F910895DE2BE8
:10043000F8CFCF93DF9390E0FC01E656FF4F249175
:100440008A579F4FFC0184918823D1F090E0880F58
:10045000991FFC01E859FF4FA591B491FC01EE589A
:10046000FF4FC591D49161110EC09FB7F8948C9144
:10047000E22FE0958E238C932881E223E8839FBFAF
:10048000DF91CF9108958FB7F894EC91E22BEC9324
:100490008FBFF6CF3FB7F894809117019091180164
:1004A000A0911901B0911A0126B5A89B05C02F3F54
:1004B00019F00196A11DB11D3FBFBA2FA92F982F8A
:1004C0008827BC01CD01620F711D811D911D42E085
:1004D000660F771F881F991F4A95D1F708951F92BD
:1004E0000F920FB60F9211242F933F934F935F9368
:1004F0006F937F938F939F93AF93BF93EF93FF93EC
:100500008BE191E00E940A01FF91EF91BF91AF91C1
:100510009F918F917F916F915F914F913F912F911B
:100520000F900FBE0F901F9018951F920F920FB64D
:100530000F9211242F938F939F93EF93FF93E0914A
:100540002B01F0912C018081E0913101F091320179
:1005500082FD1BC09081809134018F5F8F73209149
:100560003501821741F0E0913401F0E0E55EFE4F85
:10057000958F80933401FF91EF919F918F912F91EF
:100580000F900FBE0F901F9018958081F4CF1F928F
:100590000F920FB60F9211242F933F938F939F9337
:1005A000AF93BF938091130190911401A091150115
:1005B000B09116013091120123E0230F2D3758F529
:1005C0000196A11DB11D20931201809313019093F8
:1005D0001401A0931501B093160180911701909119
:1005E0001801A0911901B0911A010196A11DB11D28
:1005F0008093170190931801A0931901B0931A01E9
:10060000BF91AF919F918F913F912F910F900FBE0E
:100610000F901F90189526E8230F0296A11DB11D7B
:10062000D2CFCF93DF93EBE1F1E01382128288EE19
:1006300093E0A0E0B0E084839583A683B78384E051
:1006400091E09183808385EC90E09587848784ECAA
:1006500090E09787868780EC90E0918B808B81EC8F
:1006600090E0938B828B82EC90E0958B848B86EC70
:1006700090E0978B868B118E128E138E148EC8EBA2
:10068000D1E082E0888786E1898760E082E00E948D
:10069000190261E08885DF91CF910C94EB01CF9333
:1006A000DF9300D000D01F92CDB7DEB7789484B529
:1006B000826084BD84B5816084BD85B5826085BD5E
:1006C00085B5816085BD80916E00816080936E00EC
:1006D00010928100809181008260809381008091DE
:1006E000810081608093810080918000816080938F
:1006F00080008091B10084608093B1008091B0004F
:1007000081608093B00080917A00846080937A0049
:1007100080917A00826080937A0080917A00816073
:1007200080937A0080917A00806880937A0010929A
:10073000C100E0912B01F0912C0182E08083E091D7
:100740002701F09128011082E0912901F0912A01FE
:100750008FEC808310923301E0912F01F0913001F2
:1007600086E08083E0912D01F0912E0180818061EF
:100770008083E0912D01F0912E018081886080833B
:10078000E0912D01F0912E01808180688083E091BD
:100790002D01F0912E0180818F7D8083CE01019605
:1007A0005C0188248394912CA0E02A2EA0E03A2EAC
:1007B000F50125E011922A95E9F761E08091C001E9
:1007C0000E94190260E08091C0010E94EB010E942A
:1007D0004A022B013C01E2E1CE2ED12CE12CF12C7E
:1007E0000E944A026419750986099709683E734098
:1007F00081059105A8F381E0C81AD108E108F10844
:1008000098EE490E93E0591E611C711CC114D1046D
:10081000E104F10429F761E08091C0010E94EB013D
:100820008BE990E00197F1F760E08091C0010E94B0
:10083000190201E117E28091C0010E94C201892BD7
:1008400079F401501109B9F72114310409F4B0CF3A
:100850000E94F600882309F4ABCF0E940000A8CFC5
:1008600001E117E28091C0010E94C201019721F4C9
:1008700001501109B9F7E8CF78E2E72EF12C17E023
:1008800000E061E1C62E67E2D62E8091C0010E9491
:10089000C201892B29F4F1E0CF1AD108B1F7D4CFE6
:1008A0000E944A022B013C0151E1C52E57E2D52E90
:1008B0008091C0010E94C201019729F421E0C21A6F
:1008C000D108B1F7C1CF0E944A026419750986099F
:1008D0009709693271058105910560F0F501E00F16
:1008E000F11D80819401012E01C0220F0A94EAF7C4
:1008F000822B808311112BC00F5F17E081E0E81A73
:10090000F10809F0BECF69812A811B810C81862FF5
:10091000820F810F800F9D81891396CF8091C10135
:100920008B30B9F018F08551823078F190E49093D3
:100930007C0080917A00806480937A0080917A00B4
:1009400086FDFCCF80917800809179007DCF115099
:10095000D5CF70E090E080E00E9465056093B8011B
:100960007093B9018093BA019093BB01612F70E03D
:1009700090E080E00E9465056093BC017093BD012A
:100980008093BE019093BF01D1CF862F90E0982F26
:100990008827BC01620F711D072E000C880B990B74
:1009A0000E94670520E030E040E251E40E94F30439
:1009B0006093B8017093B9018093BA019093BB0121
:1009C000612F70E0762F6627600F711D072E000CD7
:1009D000880B990B0E94670520E030E040E251E46B
:1009E0000E94F304C9CF0E9407050C94B9050E9428
:1009F000B20558F00E94AB0540F029F45F3F29F0A2
:100A00000C94A20551110C94ED050C94A8050E94BC
:100A1000CA0568F39923B1F3552391F3951B550B40
:100A2000BB27AA2762177307840738F09F5F5F4FC1
:100A3000220F331F441FAA1FA9F335D00E2E3AF000
:100A4000E0E832D091505040E695001CCAF72BD018
:100A5000FE2F29D0660F771F881FBB1F2617370769
:100A60004807AB07B0E809F0BB0B802DBF01FF279B
:100A700093585F4F3AF09E3F510578F00C94A205D1
:100A80000C94ED055F3FE4F3983ED4F3869577959B
:100A90006795B795F7959F5FC9F7880F911D969554
:100AA000879597F90895E1E0660F771F881FBB1FB0
:100AB000621773078407BA0720F0621B730B840B5D
:100AC000BA0BEE1F88F7E0950895E89409C097FBEC
:100AD0003EF490958095709561957F4F8F4F9F4F15
:100AE0009923A9F0F92F96E9BB279395F695879559
:100AF00077956795B795F111F8CFFAF4BB0F11F41C
:100B000060FF1BC06F5F7F4F8F4F9F4F16C08823C2
:100B100011F096E911C0772321F09EE8872F762FF8
:100B200005C0662371F096E8862F70E060E02AF039
:100B30009A95660F771F881FDAF7880F9695879525
:100B400097F9089597F99F6780E870E060E008954D
:100B50009FEF80EC089500240A94161617061806D5
:100B60000906089500240A941216130614060506B1
:100B70000895092E0394000C11F4882352F0BB0F42
:100B800040F4BF2B11F460FF04C06F5F7F4F8F4FA5
:100B90009F4F089557FD9058440F551F59F05F3FE0
:100BA00071F04795880F97FB991F61F09F3F79F08F
:100BB00087950895121613061406551FF2CF469511
:100BC000F1DF08C0161617061806991FF1CF869593
:100BD0007105610508940895E894BB276627772777
:100BE000CB0197F90895EE0FFF1F0590F491E02DCA
:060BF0000994F894FFCF08
:100BF600000000002C018C00B9007901EA00C80051
:020C0600DC0010
:00000001FF
